{
  "contractName": "SerugoMedico",
  "abi": [
    {
      "inputs": [],
      "payable": false,
      "stateMutability": "nonpayable",
      "type": "constructor"
    },
    {
      "constant": true,
      "inputs": [
        {
          "internalType": "address",
          "name": "",
          "type": "address"
        }
      ],
      "name": "adminMapping",
      "outputs": [
        {
          "internalType": "bool",
          "name": "",
          "type": "bool"
        }
      ],
      "payable": false,
      "stateMutability": "view",
      "type": "function"
    },
    {
      "constant": true,
      "inputs": [
        {
          "internalType": "uint256",
          "name": "",
          "type": "uint256"
        }
      ],
      "name": "patientMapping",
      "outputs": [
        {
          "internalType": "uint256",
          "name": "id",
          "type": "uint256"
        },
        {
          "internalType": "string",
          "name": "name",
          "type": "string"
        },
        {
          "internalType": "uint256",
          "name": "phoneNo",
          "type": "uint256"
        },
        {
          "internalType": "string",
          "name": "email",
          "type": "string"
        },
        {
          "internalType": "address",
          "name": "patientAddress",
          "type": "address"
        },
        {
          "internalType": "uint256",
          "name": "donatedFunds",
          "type": "uint256"
        },
        {
          "internalType": "uint256",
          "name": "medicalRecordMappingCount",
          "type": "uint256"
        }
      ],
      "payable": false,
      "stateMutability": "view",
      "type": "function"
    },
    {
      "constant": true,
      "inputs": [],
      "name": "patientMappingCount",
      "outputs": [
        {
          "internalType": "uint256",
          "name": "",
          "type": "uint256"
        }
      ],
      "payable": false,
      "stateMutability": "view",
      "type": "function"
    },
    {
      "constant": true,
      "inputs": [
        {
          "internalType": "uint256",
          "name": "",
          "type": "uint256"
        }
      ],
      "name": "publicRecordsMapping",
      "outputs": [
        {
          "internalType": "uint256",
          "name": "id",
          "type": "uint256"
        },
        {
          "internalType": "uint256",
          "name": "patientId",
          "type": "uint256"
        },
        {
          "internalType": "string",
          "name": "name",
          "type": "string"
        },
        {
          "internalType": "address",
          "name": "patientAddressToDonateFunds",
          "type": "address"
        }
      ],
      "payable": false,
      "stateMutability": "view",
      "type": "function"
    },
    {
      "constant": true,
      "inputs": [],
      "name": "publicRecordsMappingCount",
      "outputs": [
        {
          "internalType": "uint256",
          "name": "",
          "type": "uint256"
        }
      ],
      "payable": false,
      "stateMutability": "view",
      "type": "function"
    },
    {
      "constant": false,
      "inputs": [
        {
          "internalType": "string",
          "name": "_name",
          "type": "string"
        },
        {
          "internalType": "string",
          "name": "_email",
          "type": "string"
        },
        {
          "internalType": "uint256",
          "name": "_phoneNo",
          "type": "uint256"
        },
        {
          "internalType": "address",
          "name": "_address",
          "type": "address"
        }
      ],
      "name": "addNewPatient",
      "outputs": [],
      "payable": false,
      "stateMutability": "nonpayable",
      "type": "function"
    },
    {
      "constant": false,
      "inputs": [
        {
          "internalType": "string",
          "name": "_docName",
          "type": "string"
        },
        {
          "internalType": "address",
          "name": "_docAddress",
          "type": "address"
        },
        {
          "internalType": "string",
          "name": "_docSpecialisation",
          "type": "string"
        }
      ],
      "name": "addNewDoctor",
      "outputs": [],
      "payable": false,
      "stateMutability": "nonpayable",
      "type": "function"
    },
    {
      "constant": false,
      "inputs": [
        {
          "internalType": "address",
          "name": "_docAddress",
          "type": "address"
        },
        {
          "internalType": "uint256",
          "name": "_patientId",
          "type": "uint256"
        },
        {
          "internalType": "address",
          "name": "_address",
          "type": "address"
        }
      ],
      "name": "assignDoctor",
      "outputs": [],
      "payable": false,
      "stateMutability": "nonpayable",
      "type": "function"
    },
    {
      "constant": false,
      "inputs": [
        {
          "internalType": "uint256",
          "name": "_id",
          "type": "uint256"
        },
        {
          "internalType": "string",
          "name": "_name",
          "type": "string"
        },
        {
          "internalType": "string",
          "name": "_ipfsHash",
          "type": "string"
        }
      ],
      "name": "addMedicalRecord",
      "outputs": [],
      "payable": false,
      "stateMutability": "nonpayable",
      "type": "function"
    },
    {
      "constant": true,
      "inputs": [
        {
          "internalType": "uint256",
          "name": "_diseaseId",
          "type": "uint256"
        },
        {
          "internalType": "address",
          "name": "_patientAddress",
          "type": "address"
        }
      ],
      "name": "retrieveMedicalRecord",
      "outputs": [
        {
          "components": [
            {
              "internalType": "uint256",
              "name": "id",
              "type": "uint256"
            },
            {
              "internalType": "string",
              "name": "name",
              "type": "string"
            },
            {
              "internalType": "string",
              "name": "ipfsHash",
              "type": "string"
            },
            {
              "internalType": "address",
              "name": "medicalRecordDoctor",
              "type": "address"
            }
          ],
          "internalType": "struct SerugoMedico.MedicalRecord",
          "name": "",
          "type": "tuple"
        }
      ],
      "payable": false,
      "stateMutability": "view",
      "type": "function"
    },
    {
      "constant": true,
      "inputs": [
        {
          "internalType": "address",
          "name": "_address",
          "type": "address"
        }
      ],
      "name": "retrieveMedicalRecordCount",
      "outputs": [
        {
          "internalType": "uint256",
          "name": "",
          "type": "uint256"
        }
      ],
      "payable": false,
      "stateMutability": "view",
      "type": "function"
    },
    {
      "constant": false,
      "inputs": [
        {
          "internalType": "address",
          "name": "_address",
          "type": "address"
        }
      ],
      "name": "addNewAdmin",
      "outputs": [],
      "payable": false,
      "stateMutability": "nonpayable",
      "type": "function"
    },
    {
      "constant": false,
      "inputs": [
        {
          "internalType": "uint256",
          "name": "_id",
          "type": "uint256"
        }
      ],
      "name": "donateFunds",
      "outputs": [],
      "payable": true,
      "stateMutability": "payable",
      "type": "function"
    }
  ],
  "bytecode": "0x608060405234801561001057600080fd5b5060016000803373ffffffffffffffffffffffffffffffffffffffff1673ffffffffffffffffffffffffffffffffffffffff16815260200190815260200160002060006101000a81548160ff0219169083151502179055506121b3806100776000396000f3fe6080604052600436106100c25760003560e01c8063933d7d061161007f578063c9d90dc111610059578063c9d90dc114610293578063d32521a0146102be578063d6a1d312146102da578063ed2b77e614610303576100c2565b8063933d7d06146102015780639c2e255e146102415780639e3b65651461026a576100c2565b80630a1b10e1146100c75780631315cecd146100f05780631570b2391461012d578063595e61c41461016a5780636f7a072d146101ad5780637e688733146101d8575b600080fd5b3480156100d357600080fd5b506100ee60048036036100e9919081019061193f565b610340565b005b3480156100fc57600080fd5b506101176004803603610112919081019061193f565b6104b0565b6040516101249190611f3d565b60405180910390f35b34801561013957600080fd5b50610154600480360361014f9190810190611af2565b610534565b6040516101619190611f1b565b60405180910390f35b34801561017657600080fd5b50610191600480360361018c9190810190611ac9565b610746565b6040516101a49796959493929190611f58565b60405180910390f35b3480156101b957600080fd5b506101c26108d8565b6040516101cf9190611f3d565b60405180910390f35b3480156101e457600080fd5b506101ff60048036036101fa91908101906119b7565b6108de565b005b34801561020d57600080fd5b5061022860048036036102239190810190611ac9565b610adb565b6040516102389493929190611fd5565b60405180910390f35b34801561024d57600080fd5b5061026860048036036102639190810190611968565b610bc3565b005b34801561027657600080fd5b50610291600480360361028c9190810190611b2e565b610e87565b005b34801561029f57600080fd5b506102a8611382565b6040516102b59190611f3d565b60405180910390f35b6102d860048036036102d39190810190611ac9565b611388565b005b3480156102e657600080fd5b5061030160048036036102fc9190810190611a36565b611435565b005b34801561030f57600080fd5b5061032a6004803603610325919081019061193f565b6116ef565b6040516103379190611e60565b60405180910390f35b6000803373ffffffffffffffffffffffffffffffffffffffff1673ffffffffffffffffffffffffffffffffffffffff16815260200190815260200160002060009054906101000a900460ff166103cb576040517f08c379a00000000000000000000000000000000000000000000000000000000081526004016103c290611ebb565b60405180910390fd5b6000803373ffffffffffffffffffffffffffffffffffffffff1673ffffffffffffffffffffffffffffffffffffffff16815260200190815260200160002060009054906101000a900460ff16610456576040517f08c379a000000000000000000000000000000000000000000000000000000000815260040161044d90611ebb565b60405180910390fd5b60016000808373ffffffffffffffffffffffffffffffffffffffff1673ffffffffffffffffffffffffffffffffffffffff16815260200190815260200160002060006101000a81548160ff02191690831515021790555050565b60008173ffffffffffffffffffffffffffffffffffffffff163373ffffffffffffffffffffffffffffffffffffffff16146104ea57600080fd5b600560008373ffffffffffffffffffffffffffffffffffffffff1673ffffffffffffffffffffffffffffffffffffffff168152602001908152602001600020600801549050919050565b61053c61170f565b600560008373ffffffffffffffffffffffffffffffffffffffff1673ffffffffffffffffffffffffffffffffffffffff168152602001908152602001600020600701600084815260200190815260200160002060405180608001604052908160008201548152602001600182018054600181600116156101000203166002900480601f01602080910402602001604051908101604052809291908181526020018280546001816001161561010002031660029004801561063d5780601f106106125761010080835404028352916020019161063d565b820191906000526020600020905b81548152906001019060200180831161062057829003601f168201915b50505050508152602001600282018054600181600116156101000203166002900480601f0160208091040260200160405190810160405280929190818152602001828054600181600116156101000203166002900480156106df5780601f106106b4576101008083540402835291602001916106df565b820191906000526020600020905b8154815290600101906020018083116106c257829003601f168201915b505050505081526020016003820160009054906101000a900473ffffffffffffffffffffffffffffffffffffffff1673ffffffffffffffffffffffffffffffffffffffff1673ffffffffffffffffffffffffffffffffffffffff1681525050905092915050565b6004602052806000526040600020600091509050806000015490806001018054600181600116156101000203166002900480601f0160208091040260200160405190810160405280929190818152602001828054600181600116156101000203166002900480156107f85780601f106107cd576101008083540402835291602001916107f8565b820191906000526020600020905b8154815290600101906020018083116107db57829003601f168201915b505050505090806002015490806003018054600181600116156101000203166002900480601f01602080910402602001604051908101604052809291908181526020018280546001816001161561010002031660029004801561089c5780601f106108715761010080835404028352916020019161089c565b820191906000526020600020905b81548152906001019060200180831161087f57829003601f168201915b5050505050908060040160009054906101000a900473ffffffffffffffffffffffffffffffffffffffff16908060050154908060080154905087565b60035481565b6000803373ffffffffffffffffffffffffffffffffffffffff1673ffffffffffffffffffffffffffffffffffffffff16815260200190815260200160002060009054906101000a900460ff16610969576040517f08c379a000000000000000000000000000000000000000000000000000000000815260040161096090611ebb565b60405180910390fd5b61097161174d565b60015481600001818152505082816020019073ffffffffffffffffffffffffffffffffffffffff16908173ffffffffffffffffffffffffffffffffffffffff1681525050838160400181905250818160600181905250806006600060015481526020019081526020016000206000820151816000015560208201518160010160006101000a81548173ffffffffffffffffffffffffffffffffffffffff021916908373ffffffffffffffffffffffffffffffffffffffff1602179055506040820151816002019080519060200190610a4a92919061178b565b506060820151816003019080519060200190610a6792919061178b565b509050506001600760008573ffffffffffffffffffffffffffffffffffffffff1673ffffffffffffffffffffffffffffffffffffffff16815260200190815260200160002060006101000a81548160ff02191690831515021790555060016000815480929190600101919050555050505050565b6008602052806000526040600020600091509050806000015490806001015490806002018054600181600116156101000203166002900480601f016020809104026020016040519081016040528092919081815260200182805460018160011615610100020316600290048015610b935780601f10610b6857610100808354040283529160200191610b93565b820191906000526020600020905b815481529060010190602001808311610b7657829003601f168201915b5050505050908060030160009054906101000a900473ffffffffffffffffffffffffffffffffffffffff16905084565b6000803373ffffffffffffffffffffffffffffffffffffffff1673ffffffffffffffffffffffffffffffffffffffff16815260200190815260200160002060009054906101000a900460ff16610c4e576040517f08c379a0000000000000000000000000000000000000000000000000000000008152600401610c4590611ebb565b60405180910390fd5b600760008473ffffffffffffffffffffffffffffffffffffffff1673ffffffffffffffffffffffffffffffffffffffff16815260200190815260200160002060009054906101000a900460ff16610cda576040517f08c379a0000000000000000000000000000000000000000000000000000000008152600401610cd190611edb565b60405180910390fd5b8073ffffffffffffffffffffffffffffffffffffffff166004600084815260200190815260200160002060040160009054906101000a900473ffffffffffffffffffffffffffffffffffffffff1673ffffffffffffffffffffffffffffffffffffffff1614610d7e576040517f08c379a0000000000000000000000000000000000000000000000000000000008152600401610d7590611e7b565b60405180910390fd5b60016004600084815260200190815260200160002060060160008573ffffffffffffffffffffffffffffffffffffffff1673ffffffffffffffffffffffffffffffffffffffff16815260200190815260200160002060006101000a81548160ff0219169083151502179055506001600560008373ffffffffffffffffffffffffffffffffffffffff1673ffffffffffffffffffffffffffffffffffffffff16815260200190815260200160002060060160008573ffffffffffffffffffffffffffffffffffffffff1673ffffffffffffffffffffffffffffffffffffffff16815260200190815260200160002060006101000a81548160ff021916908315150217905550505050565b82600760003373ffffffffffffffffffffffffffffffffffffffff1673ffffffffffffffffffffffffffffffffffffffff16815260200190815260200160002060009054906101000a900460ff16610f14576040517f08c379a0000000000000000000000000000000000000000000000000000000008152600401610f0b90611e9b565b60405180910390fd5b6004600082815260200190815260200160002060060160003373ffffffffffffffffffffffffffffffffffffffff1673ffffffffffffffffffffffffffffffffffffffff16815260200190815260200160002060009054906101000a900460ff16610fb4576040517f08c379a0000000000000000000000000000000000000000000000000000000008152600401610fab90611efb565b60405180910390fd5b610fbc61170f565b610fc461180b565b60006004600088815260200190815260200160002060040160009054906101000a900473ffffffffffffffffffffffffffffffffffffffff169050600460008881526020019081526020016000206008015483600001818152505085836020018190525084836040018190525033836060019073ffffffffffffffffffffffffffffffffffffffff16908173ffffffffffffffffffffffffffffffffffffffff168152505082600460008981526020019081526020016000206007016000600460008b81526020019081526020016000206008015481526020019081526020016000206000820151816000015560208201518160010190805190602001906110cd92919061178b565b5060408201518160020190805190602001906110ea92919061178b565b5060608201518160030160006101000a81548173ffffffffffffffffffffffffffffffffffffffff021916908373ffffffffffffffffffffffffffffffffffffffff16021790555090505082600560008373ffffffffffffffffffffffffffffffffffffffff1673ffffffffffffffffffffffffffffffffffffffff1681526020019081526020016000206007016000600560008573ffffffffffffffffffffffffffffffffffffffff1673ffffffffffffffffffffffffffffffffffffffff1681526020019081526020016000206008015481526020019081526020016000206000820151816000015560208201518160010190805190602001906111f192919061178b565b50604082015181600201908051906020019061120e92919061178b565b5060608201518160030160006101000a81548173ffffffffffffffffffffffffffffffffffffffff021916908373ffffffffffffffffffffffffffffffffffffffff16021790555090505060046000888152602001908152602001600020600801600081548092919060010191905055506003548260000181815250508682602001818152505085826040018190525080826060019073ffffffffffffffffffffffffffffffffffffffff16908173ffffffffffffffffffffffffffffffffffffffff1681525050816008600060035481526020019081526020016000206000820151816000015560208201518160010155604082015181600201908051906020019061131c92919061178b565b5060608201518160030160006101000a81548173ffffffffffffffffffffffffffffffffffffffff021916908373ffffffffffffffffffffffffffffffffffffffff16021790555090505060036000815480929190600101919050555050505050505050565b60025481565b34600460008381526020019081526020016000206005016000828254019250508190555034600560006004600085815260200190815260200160002060040160009054906101000a900473ffffffffffffffffffffffffffffffffffffffff1673ffffffffffffffffffffffffffffffffffffffff1673ffffffffffffffffffffffffffffffffffffffff1681526020019081526020016000206005016000828254019250508190555050565b6000803373ffffffffffffffffffffffffffffffffffffffff1673ffffffffffffffffffffffffffffffffffffffff16815260200190815260200160002060009054906101000a900460ff166114c0576040517f08c379a00000000000000000000000000000000000000000000000000000000081526004016114b790611ebb565b60405180910390fd5b6114c8611849565b6002548160000181815250508481602001819052508381606001819052508281604001818152505081816080019073ffffffffffffffffffffffffffffffffffffffff16908173ffffffffffffffffffffffffffffffffffffffff16815250508060046000600254815260200190815260200160002060008201518160000155602082015181600101908051906020019061156492919061178b565b5060408201518160020155606082015181600301908051906020019061158b92919061178b565b5060808201518160040160006101000a81548173ffffffffffffffffffffffffffffffffffffffff021916908373ffffffffffffffffffffffffffffffffffffffff16021790555060a0820151816005015560c0820151816008015590505080600560008473ffffffffffffffffffffffffffffffffffffffff1673ffffffffffffffffffffffffffffffffffffffff16815260200190815260200160002060008201518160000155602082015181600101908051906020019061165092919061178b565b5060408201518160020155606082015181600301908051906020019061167792919061178b565b5060808201518160040160006101000a81548173ffffffffffffffffffffffffffffffffffffffff021916908373ffffffffffffffffffffffffffffffffffffffff16021790555060a0820151816005015560c082015181600801559050506002600081548092919060010191905055505050505050565b60006020528060005260406000206000915054906101000a900460ff1681565b6040518060800160405280600081526020016060815260200160608152602001600073ffffffffffffffffffffffffffffffffffffffff1681525090565b604051806080016040528060008152602001600073ffffffffffffffffffffffffffffffffffffffff16815260200160608152602001606081525090565b828054600181600116156101000203166002900490600052602060002090601f016020900481019282601f106117cc57805160ff19168380011785556117fa565b828001600101855582156117fa579182015b828111156117f95782518255916020019190600101906117de565b5b509050611807919061189c565b5090565b6040518060800160405280600081526020016000815260200160608152602001600073ffffffffffffffffffffffffffffffffffffffff1681525090565b6040518060e0016040528060008152602001606081526020016000815260200160608152602001600073ffffffffffffffffffffffffffffffffffffffff16815260200160008152602001600081525090565b6118be91905b808211156118ba5760008160009055506001016118a2565b5090565b90565b6000813590506118d081612142565b92915050565b600082601f8301126118e757600080fd5b81356118fa6118f58261204e565b612021565b9150808252602083016020830185838301111561191657600080fd5b6119218382846120ef565b50505092915050565b60008135905061193981612159565b92915050565b60006020828403121561195157600080fd5b600061195f848285016118c1565b91505092915050565b60008060006060848603121561197d57600080fd5b600061198b868287016118c1565b935050602061199c8682870161192a565b92505060406119ad868287016118c1565b9150509250925092565b6000806000606084860312156119cc57600080fd5b600084013567ffffffffffffffff8111156119e657600080fd5b6119f2868287016118d6565b9350506020611a03868287016118c1565b925050604084013567ffffffffffffffff811115611a2057600080fd5b611a2c868287016118d6565b9150509250925092565b60008060008060808587031215611a4c57600080fd5b600085013567ffffffffffffffff811115611a6657600080fd5b611a72878288016118d6565b945050602085013567ffffffffffffffff811115611a8f57600080fd5b611a9b878288016118d6565b9350506040611aac8782880161192a565b9250506060611abd878288016118c1565b91505092959194509250565b600060208284031215611adb57600080fd5b6000611ae98482850161192a565b91505092915050565b60008060408385031215611b0557600080fd5b6000611b138582860161192a565b9250506020611b24858286016118c1565b9150509250929050565b600080600060608486031215611b4357600080fd5b6000611b518682870161192a565b935050602084013567ffffffffffffffff811115611b6e57600080fd5b611b7a868287016118d6565b925050604084013567ffffffffffffffff811115611b9757600080fd5b611ba3868287016118d6565b9150509250925092565b611bb6816120a7565b82525050565b611bc5816120a7565b82525050565b611bd4816120b9565b82525050565b6000611be58261207a565b611bef8185612085565b9350611bff8185602086016120fe565b611c0881612131565b840191505092915050565b6000611c1e8261207a565b611c288185612096565b9350611c388185602086016120fe565b611c4181612131565b840191505092915050565b6000611c59602383612096565b91507f50617469656e7420494420616e64204144445245535320646f206e6f74206d6160008301527f74636800000000000000000000000000000000000000000000000000000000006020830152604082019050919050565b6000611cbf600c83612096565b91507f4e6f74206120446f63746f7200000000000000000000000000000000000000006000830152602082019050919050565b6000611cff600c83612096565b91507f4e6f7420616e2041646d696e00000000000000000000000000000000000000006000830152602082019050919050565b6000611d3f601483612096565b91507f4e6f74206120646f63746f7220616464726573730000000000000000000000006000830152602082019050919050565b6000611d7f602483612096565b91507f596f7520617265206e6f742061737369676e656420746f20746869732070617460008301527f69656e74000000000000000000000000000000000000000000000000000000006020830152604082019050919050565b6000608083016000830151611df06000860182611e42565b5060208301518482036020860152611e088282611bda565b91505060408301518482036040860152611e228282611bda565b9150506060830151611e376060860182611bad565b508091505092915050565b611e4b816120e5565b82525050565b611e5a816120e5565b82525050565b6000602082019050611e756000830184611bcb565b92915050565b60006020820190508181036000830152611e9481611c4c565b9050919050565b60006020820190508181036000830152611eb481611cb2565b9050919050565b60006020820190508181036000830152611ed481611cf2565b9050919050565b60006020820190508181036000830152611ef481611d32565b9050919050565b60006020820190508181036000830152611f1481611d72565b9050919050565b60006020820190508181036000830152611f358184611dd8565b905092915050565b6000602082019050611f526000830184611e51565b92915050565b600060e082019050611f6d600083018a611e51565b8181036020830152611f7f8189611c13565b9050611f8e6040830188611e51565b8181036060830152611fa08187611c13565b9050611faf6080830186611bbc565b611fbc60a0830185611e51565b611fc960c0830184611e51565b98975050505050505050565b6000608082019050611fea6000830187611e51565b611ff76020830186611e51565b81810360408301526120098185611c13565b90506120186060830184611bbc565b95945050505050565b6000604051905081810181811067ffffffffffffffff8211171561204457600080fd5b8060405250919050565b600067ffffffffffffffff82111561206557600080fd5b601f19601f8301169050602081019050919050565b600081519050919050565b600082825260208201905092915050565b600082825260208201905092915050565b60006120b2826120c5565b9050919050565b60008115159050919050565b600073ffffffffffffffffffffffffffffffffffffffff82169050919050565b6000819050919050565b82818337600083830152505050565b60005b8381101561211c578082015181840152602081019050612101565b8381111561212b576000848401525b50505050565b6000601f19601f8301169050919050565b61214b816120a7565b811461215657600080fd5b50565b612162816120e5565b811461216d57600080fd5b5056fea365627a7a723158209f90cb8b8fbe029b697957b38446e73b709c6f2724fc297c7697330c3a1b16c86c6578706572696d656e74616cf564736f6c63430005100040",
  "source": "// SPDX-License-Identifier: MIT\r\npragma solidity >=0.4.21 <0.7.0;\r\npragma experimental ABIEncoderV2;\r\n\r\ncontract SerugoMedico {\r\n    mapping(address => bool) public adminMapping;\r\n\r\n    constructor() public {\r\n        adminMapping[msg.sender] = true;\r\n    }\r\n\r\n    modifier onlyAdmin() {\r\n        require(adminMapping[msg.sender], \"Not an Admin\");\r\n        _;\r\n    }\r\n\r\n    modifier onlyDoctor() {\r\n        require(isADoctor[msg.sender], \"Not a Doctor\");\r\n        _;\r\n    }\r\n\r\n    modifier onlyAssignedDoctor(uint256 _id) {\r\n        require(isADoctor[msg.sender], \"Not a Doctor\");\r\n        require(\r\n            patientMapping[_id].assignedDoctors[msg.sender],\r\n            \"You are not assigned to this patient\"\r\n        );\r\n        _;\r\n    }\r\n\r\n    uint256 doctorMappingCount;\r\n    uint256 public patientMappingCount;\r\n    uint256 public publicRecordsMappingCount;\r\n\r\n    mapping(uint256 => Patient) public patientMapping;\r\n    mapping(address => Patient) patientAddressMapping;\r\n    mapping(uint256 => Doctor) doctorMapping;\r\n    mapping(address => bool) isADoctor;\r\n    mapping(uint256 => publicMedicalRecord) public publicRecordsMapping;\r\n\r\n    struct Patient {\r\n        uint256 id;\r\n        string name;\r\n        uint256 phoneNo;\r\n        string email;\r\n        address patientAddress;\r\n        uint256 donatedFunds;\r\n        mapping(address => bool) assignedDoctors;\r\n        mapping(uint256 => MedicalRecord) medicalRecordMapping;\r\n        uint256 medicalRecordMappingCount;\r\n    }\r\n\r\n    struct MedicalRecord {\r\n        uint256 id;\r\n        string name;\r\n        string ipfsHash;\r\n        address medicalRecordDoctor;\r\n    }\r\n\r\n    struct publicMedicalRecord {\r\n        uint256 id;\r\n        uint256 patientId;\r\n        string name;\r\n        address patientAddressToDonateFunds;\r\n    }\r\n\r\n    struct Doctor {\r\n        uint256 id;\r\n        address docAddress;\r\n        string docName;\r\n        string docSpecialisation;\r\n    }\r\n\r\n    //adding patient, doctor, assigning doctor onlyAdmin()\r\n    function addNewPatient(\r\n        string memory _name,\r\n        string memory _email,\r\n        uint256 _phoneNo,\r\n        address _address\r\n    ) public onlyAdmin {\r\n        Patient memory _newpatient;\r\n        _newpatient.id = patientMappingCount;\r\n        _newpatient.name = _name;\r\n        _newpatient.email = _email;\r\n        _newpatient.phoneNo = _phoneNo;\r\n        _newpatient.patientAddress = _address;\r\n        patientMapping[patientMappingCount] = _newpatient;\r\n        patientAddressMapping[_address] = _newpatient;\r\n        patientMappingCount++;\r\n    }\r\n\r\n    function addNewDoctor(\r\n        string memory _docName,\r\n        address _docAddress,\r\n        string memory _docSpecialisation\r\n    ) public onlyAdmin {\r\n        Doctor memory _newDoctor;\r\n        _newDoctor.id = doctorMappingCount;\r\n        _newDoctor.docAddress = _docAddress;\r\n        _newDoctor.docName = _docName;\r\n        _newDoctor.docSpecialisation = _docSpecialisation;\r\n        doctorMapping[doctorMappingCount] = _newDoctor;\r\n        isADoctor[_docAddress] = true;\r\n        doctorMappingCount++;\r\n    }\r\n\r\n    function assignDoctor(\r\n        address _docAddress,\r\n        uint256 _patientId,\r\n        address _address\r\n    ) public onlyAdmin {\r\n        require(isADoctor[_docAddress], \"Not a doctor address\");\r\n        require(\r\n            patientMapping[_patientId].patientAddress == _address,\r\n            \"Patient ID and ADDRESS do not match\"\r\n        );\r\n        patientMapping[_patientId].assignedDoctors[_docAddress] = true;\r\n        patientAddressMapping[_address].assignedDoctors[_docAddress] = true;\r\n    }\r\n\r\n    //adding new MedicalRecord to diseaseMapping and abstract disease to diseasePublic\r\n    function addMedicalRecord(\r\n        uint256 _id,\r\n        string memory _name,\r\n        string memory _ipfsHash\r\n    ) public onlyAssignedDoctor(_id) {\r\n        MedicalRecord memory _medicalRecord;\r\n        publicMedicalRecord memory _publicMedicalRecord;\r\n\r\n        address _patientAddress = patientMapping[_id].patientAddress;\r\n\r\n        _medicalRecord.id = patientMapping[_id].medicalRecordMappingCount;\r\n        _medicalRecord.name = _name;\r\n        _medicalRecord.ipfsHash = _ipfsHash;\r\n        _medicalRecord.medicalRecordDoctor = msg.sender;\r\n        patientMapping[_id].medicalRecordMapping[patientMapping[_id]\r\n            .medicalRecordMappingCount] = _medicalRecord;\r\n        patientAddressMapping[_patientAddress]\r\n            .medicalRecordMapping[patientAddressMapping[_patientAddress]\r\n            .medicalRecordMappingCount] = _medicalRecord;\r\n        patientMapping[_id].medicalRecordMappingCount++;\r\n\r\n        _publicMedicalRecord.id = publicRecordsMappingCount;\r\n        _publicMedicalRecord.patientId = _id;\r\n        _publicMedicalRecord.name = _name;\r\n        _publicMedicalRecord.patientAddressToDonateFunds = _patientAddress;\r\n\r\n        publicRecordsMapping[publicRecordsMappingCount] = _publicMedicalRecord;\r\n        publicRecordsMappingCount++;\r\n    }\r\n\r\n    function retrieveMedicalRecord(uint256 _diseaseId, address _patientAddress)\r\n        public\r\n        view\r\n        returns (MedicalRecord memory)\r\n    {\r\n        return\r\n            patientAddressMapping[_patientAddress]\r\n                .medicalRecordMapping[_diseaseId];\r\n    }\r\n\r\n    function retrieveMedicalRecordCount(address _address)\r\n        public\r\n        view\r\n        returns (uint256)\r\n    {\r\n        require(msg.sender == _address);\r\n        return patientAddressMapping[_address].medicalRecordMappingCount;\r\n    }\r\n\r\n    //add new admin\r\n    function addNewAdmin(address _address) public onlyAdmin {\r\n        require(adminMapping[msg.sender], \"Not an Admin\");\r\n        adminMapping[_address] = true;\r\n    }\r\n\r\n    //donateFunds\r\n    function donateFunds(uint256 _id) public payable {\r\n        patientMapping[_id].donatedFunds += msg.value;\r\n        patientAddressMapping[patientMapping[_id].patientAddress]\r\n            .donatedFunds += msg.value;\r\n    }\r\n}\r\n",
  "sourcePath": "C:/Users/shahs/Documents/react-app-tutorials/seguro-medico/contracts/SerugoMedico.sol",
  "compiler": {
    "name": "solc",
    "version": "0.5.16+commit.9c3226ce.Emscripten.clang"
  },
  "schemaVersion": "3.2.3",
  "updatedAt": "2020-08-08T18:44:11.046Z",
  "networkType": "ethereum",
  "devdoc": {
    "methods": {}
  },
  "userdoc": {
    "methods": {}
  }
}